:020000040040BA
:1000000000274020210E40001D0E40001D0E400024
:100010001D0E40001D0E40001D0E4000000000009F
:100020000000000000000000000000001D0E400065
:100030001D0E4000000000001D0E40001D0E40007F
:100040001D0E40001D0E40001D0E40001D0E400004
:100050001D0E40001D0E40001D0E40001D0E4000F4
:100060001D0E400000000000450C4000590C4000EF
:100070006D0C40001D0E40001D0E40001D0E400086
:10008000810C4000950C40001D0E40001D0E4000EC
:100090001D0E40001D0E40001D0E40001D0E4000B4
:1000A0001D0E40001D0E40001D0E40001D0E4000A4
:1000B0001D0E40001D0E40001D0E40001D0E400094
:1000C0001D0E40001D0E40001D0E40001D0E400084
:1000D000000000001D0E4000000000001D0E40004A
:1000E0001D0E40001D0E40001D0E40001D0E400064
:1000F0001D0E40001D0E40001D0E40001D0E400054
:100100001D0E40001D0E40001D0E40001D0E400043
:100110001D0E400000000000000000000000000074
:100120001D0E40001D0E40001D0E40001D0E400023
:100130001D0E4000000000001D0E40001D0E40007E
:1001400010B5054C237833B9044B13B10448AFF311
:1001500000800123237010BD4C04402000000000EB
:10016000483940000C4B43B10C480D4910B5AFF372
:1001700000800C48036823B910BD0A48036833B9EE
:100180007047094B002BF7D0BDE810401847064BCD
:10019000002BF5D0184700BF000000004839400090
:1001A00050044020483940000000000008B5074BCB
:1001B000984203D0064B984204D008BD1520054B49
:1001C000984708BD2A20034B9847F6E70080004077
:1001D00000800540C90D4000436823F4702343604C
:1001E0004368090401F4702119434160704730B439
:1001F00043F69924056915F0020F03D1013CF9D1AA
:1002000001200CE0446814F0020F06D0120402F43E
:10021000702211430BB141F08071C160002030BCED
:10022000704732B900EB8100036B23F001030363D5
:10023000704700EB8100036B43F0010303637047D9
:1002400032B900EB8100036B23F0020303637047B4
:1002500000EB8100036B43F0020303637047042A41
:1002600003D06AB1082A16D0704700EB8100036BF7
:1002700023F008030363036B43F004030363704735
:1002800000EB8100036B23F008030363036B23F08F
:1002900004030363704700EB8100036B43F0080322
:1002A0000363E1E700EB81010B6B23F0F0030B63C9
:1002B0000B6B1A430A637047431E1944B1FBF0F0FD
:1002C000431EFE2B94BF00B24FF0FF3070477AB14F
:1002D00010B4144600EB81010B6B23F47F430B63D6
:1002E0000A6B42EA04220A6300205DF8044B70475F
:1002F0004FF0FF3070470000014B1860704700BF9F
:1003000068044020024B1B6803EBC0104254704746
:1003100068044020024B1B6803EBC010405C704730
:10032000680440202DE9F0478418802C02DDC0F1DC
:100330008004E2B222B3CD08A1EBC501012606FA82
:1003400001F1CEB2012B1DD0002B35D0022B17D1DD
:100350000138C7B2D419E4B2DFF890A04FF0000919
:10036000DFF88C8021462846D04786EA00024B46BB
:10037000D2B221462846C047013CE4B2BC42F1D18A
:10038000BDE8F0870138C7B2D419E4B2DFF85CA049
:100390004FF00009DFF8588021462846D04746EA4A
:1003A00000024B46D2B221462846C047013CE4B287
:1003B000BC42F1D1BDE8F0870138C7B2D419E4B22C
:1003C000DFF82880CE43DFF8289021462846C04732
:1003D00006EA00020023D2B221462846C847013C63
:1003E000E4B2BC42F1D1BDE8F08700BF2506400071
:1003F000210540002DE9F8439DF820708BB11C4683
:10040000904606464D1EEDB22C44E4B2DFF818903B
:100410003B46424621463046C847013CE4B2AC4226
:10042000F6D1BDE8F88300BF250340002DE9F04F69
:1004300083B00446884691469B465B7A9BF8082029
:100440000021009149464046214DA8479BF80030C5
:1004500013B103B0BDE8F08F9BF80820D30812F069
:10046000070F18BF01339BF809A09BF80A70E71B20
:1004700017FB0AF717FB03F7DBF8043013FA87F7CB
:100480001FE06400E4B20135EBB29E4210D9EBB23A
:1004900008EB0300C0B213F0070F08BF17F8014BB9
:1004A00014F0800FEDD0012249460A4B9847E8E747
:1004B00009F101095FFA89F90AF1FF3A1AF0FF0A16
:1004C000C7D09BF80860002EF2D000252C46DEE74E
:1004D000F5034000C10540002DE9F843044690466D
:1004E0001D4689460D4F0E4608E06A7A01324244A5
:1004F0005FFA82F8B14614F8013F6BB120780A2800
:10050000F3D00D28F7D02B4642464946B8472B7A00
:1005100099445FFA89F9EEE7BDE8F8832D044000BD
:1005200070B504460D4616461BB90D4B9847B042B0
:1005300015D03246294620460A4B984704F00F0052
:1005400040F0B000084CA047C5F3021040F0100086
:10055000A04705F00F00A0473046044B984770BDF8
:1005600015034000050340003106400051084000DB
:100570002DE9F0410D480E4B98470E4B984740200F
:100580000D4B984700254FF001082F460B4E0024D5
:1005900043463A46E1B22846B0470134802CF7D1B1
:1005A0000135EDB2042DF2D1BDE8F0816C0440209C
:1005B000F90240007106400031064000210540006C
:1005C000C3092AD11F2928D82DE9F0411446054630
:1005D000CE08A1EBC601012202FA01F75FFA87F803
:1005E000014630460D4B98470246012C09D064B1B4
:1005F000022C0ED0002329463046094CA047BDE806
:10060000F08148EA0002D2B2F4E720EA0702D2B24F
:10061000F0E788EA0002D2B2ECE770471503400029
:100620002105400008B5014B984708BD150340005F
:1006300038B505460822094B5A63094C012120466A
:10064000084B984701231A4629462046064CA047E6
:100650004FF4FD70054B984738BD00BF00100E40A9
:1006600000800040D9014000EF014000010040201F
:100670002DE9F843664D4FF400362E61C5F8A060B1
:10068000644B08271F61C3F8A0706E66C5F89060C0
:100690006E656E62C5F880602A6F22F400322A67A8
:1006A0006A6F22F400326A675F66C3F890705F6514
:1006B0005F62C3F880701A6F22F008021A675A6FDF
:1006C00022F008025A671F602E601F632E63DFF856
:1006D0007C8100234FF480024FF0805140464E4C05
:1006E000A04700234FF400124FF080514046A0472E
:1006F00000234FF000724FF080514046A047002386
:100700004FF480024FF080514046A04700234FF441
:1007100000124FF080514046A04700234FF0007276
:100720004FF080514046A0473C4C4FF00209C4F8BE
:1007300000904FF08008C4F80080636843F0010324
:1007400063603A4601212046354B9847002201213B
:100750002046344B9847002201212046324B9847CF
:10076000636823F0020363600022012120462F4BBF
:100770009847636823F080036360636843F0100365
:1007800063602B492B482C4B9847C2B2012120466D
:100790002A4B984720462A4B9847012323606E63D3
:1007A00040F6B830274CA0472E6340F6B830A0473B
:1007B0002E63A820244CA0471F20A047D320A04789
:1007C0000020A0474020A047A120A047C820A04764
:1007D000DA20A0474846A0478120A0478F20A047A5
:1007E000A420A047A620A047D520A0474046A04768
:1007F0008D20A0471420A047DB20A0474020A04721
:10080000D920A047F120A047AF20A047BDE8F8833A
:1008100000120E4000100E405D0B400000800040B2
:100820005F0240002302400041024000A502400058
:1008300080D1F00840420F00B9024000CF024000D2
:10084000AD014000010040203106400000140E4080
:1008500038B505460822094B1A63094C0121204688
:10086000084B984701231A4629462046064CA047C4
:100870004FF4FD70054B984738BD00BF00100E4087
:1008800000800040D9014000EF01400001004020FD
:1008900010B51048104B98473E2100200F4B984749
:1008A0000F4CA0470028FCD00E4B98470E4A0F4B28
:1008B0009A620F4CA0470028FCD002200D4B9847AD
:1008C00000200D4B98470D4B98470248024B984724
:1008D00010BD00BF00A3E111F50F4000450D400021
:1008E000990D4000A90D4000013F182000060E4060
:1008F000B90D4000A90C4000E10C4000E90E400099
:10090000F8B54FF40042484B5A60BFF34F8FBFF326
:100910006F8F464B0022C3F850225A6942F40032CE
:100920005A61BFF34F8FBFF36F8FD3F88070C7F357
:100930004E3607F007000430C7F3C907B7FA87FE41
:100940000EF01F0EBFF34F8F4FF0FF3404FA00FC80
:1009500006FA00F004FA0EF407FA0EFE1D463A46B7
:10096000734640EA0301C5F86012013A2344B2F12C
:10097000FF3FF6D1013E6044B6F1FF3FEFD1BFF338
:100980004F8F2A4B5A6942F480325A61BFF34F8F1E
:10099000BFF36F8F264A27495160A1F580715160DE
:1009A000BFF34F8FBFF36F8FD3F8902222F0010275
:1009B000C3F89022D3F8942222F00102C3F89422C3
:1009C000BFF34F8FBFF36F8F0A201B4CA0470B2044
:1009D000A0470C20A0471020A0471120A047174B8C
:1009E0004FF480721A61C3F8A0201A63A3F58063E4
:1009F0004FF400625A61C3F8A0205A66C3F89020F1
:100A00005A651A62C3F88420196F21F400611967CE
:100A1000596F21F400615967C3F8C020C3F8D4208E
:100A2000C3F8B020F8BD00BF50180E4000ED00E044
:100A3000000C0E400C08005AC90D400000120E4078
:100A40000AB90166704741667047016370474163A8
:100A5000704721F00061B1F1405F05D1836B134213
:100A600014BF012000207047C36BF8E74264B1F166
:100A7000C05F3AD013D8B1F1006F25D0B1F1805FDB
:100A80000AD1036F13430367436F416F0B4023EA9F
:100A900002034367426070470029FBD17047B1F100
:100AA000205F21D009D8B1F1005FF3D1036F134368
:100AB0000367436F13434367ECE7B1F1405F13D023
:100AC000B1F1605F10D0E5E710B4016F046FD3435C
:100AD00021401C4619400167436F416F0B40234082
:100AE000436742605DF8044B7047036F016F0B4032
:100AF00023EA02030367436F13434367CAE7416472
:100B000012F0010F0DD1016612F00A0F0BD0016235
:100B100012F0020F09D112F0080F08D0C0F88410AB
:100B200005E04166F0E74162F2E7C0F880104161FC
:100B30000160704710B4019C41644CB901664BB12F
:100B400001654AB94163016101605DF8044B70477A
:100B50004166F4E74165F4E70163F4E770B582B0FC
:100B6000054616461C46B1F1005F14D00AD9B1F112
:100B7000405F24D0B1F1605F21D0B1F1205F17D088
:100B800000201AE0B1F1805F05D0B1F1C05F02D062
:100B9000B1F1006FF4D132462846114B984714F05A
:100BA000010F02D12E66012007E06E66012004E0ED
:100BB0001A4631460B4B9847012002B070BD04F035
:100BC00001030093C4F38003B1F1605F14BF0022FE
:100BD000012231462846044CA0470120EDE700BF22
:100BE0006D0A4000FF0A4000350B4000C06C7047A2
:100BF000806C70472DE9F041044688460E4B9847BB
:100C0000054620460D4B9847054013D00C4C04F187
:100C1000600603E0B4420DD010345DB12068404559
:100C2000F8D161682942F5D0E3689847636825EAFE
:100C30000305EFE7BDE8F081ED0B4000F10B40004C
:100C40006C06402008B50A210148024B984708BDB0
:100C5000000E0E40F50B400008B50B210148024B79
:100C6000984708BD00100E40F50B400008B50C2158
:100C70000148024B984708BD00120E40F50B40009A
:100C800008B510210148024B984708BD00140E40DA
:100C9000F50B400008B511210148024B984708BDEB
:100CA00000160E40F50B4000032811D0042812D086
:100CB00002280CBF4FF480710021084A136B23F403
:100CC00040730B431363936E13F0080FFBD0704710
:100CD0004FF44071F1E74FF40071EEE700060E406B
:100CE000174A136B23F0700318431063936E13F0CD
:100CF000080F0AD14FF4805311498A6E12F0080F81
:100D000003D1013BF9D1012070470D4A136B23F049
:100D1000030343F002031363936E13F0080F0AD129
:100D20004FF4805306498A6E12F0080F05D1013B3B
:100D3000F9D101207047002070470020704700BFA4
:100D400000060E40A0B90E48036A090289B20D4A96
:100D50001A400D4B1343194301620246936E13F080
:100D6000010FFBD0064A116A084B0B431362704710
:100D700003490B6A064A1A40064B13430B6270473D
:100D800000060E40FCFFC8FF0100370000003701DD
:100D9000FCFFC8FE02003701024B986E00F4803061
:100DA000704700BF00060E404FF00052014B9A62A0
:100DB000704700BF00060E40024B986E00F0020024
:100DC000704700BF00060E403F281ED81F280CD8D1
:100DD000114B9A6901238340934318D0012303FAEE
:100DE00000F00D4B18610020704720380A4BD3F8F3
:100DF00008210123834093430BD0012303FA00F021
:100E0000054BC3F800010020704701207047002007
:100E100070470020704700BF00060E40FEE700004C
:100E200000B583B0254B264A9A4210D0254B234A61
:100E30009A420CD2013B9B1A23F003030433134460
:100E40001F4951F8040B42F8040B9A42F9D11E4B8A
:100E50001E4A9A420AD2013B9B1A23F00303043331
:100E60001344002142F8041B9342FBD1184A194B4A
:100E700023F07F039360EFF31083B3FA83F35B09EE
:100E8000019372B6BFF35F8F0022134B1A70019962
:100E9000124A136843F470031360BFF34F8FBFF31C
:100EA0006F8F29B101220C4B1A70BFF35F8F62B6AE
:100EB0000B4B98470B4B9847FEE700BF00004020C4
:100EC000483940004C044020000740204C0440209A
:100ED00000ED00E0000040001800402088ED00E038
:100EE00041204000451340003B4B1B6B03F00303C4
:100EF000012B1DD083B1022B36D0374B1B6B03F077
:100F00007003702B5FD0344B1A6B3449C2F302125A
:100F10000B68D3400B607047314B5B6913F0800F57
:100F200014BF4FF400424FF4FA422C4B1A60E4E72E
:100F3000294B1B6A13F0807F03D02A4A274B1A6083
:100F4000DBE7294A254B1A60234B1B6A03F0700329
:100F5000102B05D0202BD0D1224A204B1A60CCE791
:100F6000224A1E4B1A60C8E71B4B1B6A13F0807F96
:100F700016D01C4A194B1A60174B1B6B03F0030366
:100F8000022BBAD1144A916A926A1448C1F30A41F9
:100F9000036801FB0333D2B2B3FBF2F30360ACE7A7
:100FA000114A0E4B1A600C4B1B6A03F07003102B96
:100FB00005D0202BE0D10B4A084B1A60DCE70B4A26
:100FC000064B1A60D8E7054A13680949A1FB0313C9
:100FD0005B081360704700BF00060E401C004020F5
:100FE00010180E40001BB70000093D0000127A00E7
:100FF000ABAAAAAA164B984213D9164B984215D9F8
:10100000154B984216D9154B984217D9144B984254
:1010100018D9144B984294BF134A144A144B1A60BF
:1010200070474FF08062124B1A607047114A104BA4
:101030001A607047104A0E4B1A6070470F4A0C4BEB
:101040001A6070474FF00422094B1A60704700BFC6
:10105000BFF35E017FE7BD023FDB1C04FFCE7B05D3
:10106000BFC2DA067FB63908000500040006000496
:10107000000C0E4000010004000200040003000404
:101080002DE9F04704460F464FF480712448254B64
:101090009847254B93FBF4F807FB04F1234F87FB9C
:1010A0000137C917C1EBA717002F32DD204CA8FB71
:1010B00004014246D31704FB03111E4A00231E4CB1
:1010C0000025001969411D4CA047824600241C4E92
:1010D000DFF874901B4D0BE03320A8474FF08041A0
:1010E0003046104B98473320A8470134A74210D010
:1010F0004FF080413046C847B8F1000FECD0504661
:10110000A8474FF080413046064B98475046A847C5
:10111000EBE74FF4807102480B4B9847BDE8F0872E
:1011200000120E404F0A400020A10700D34D62106C
:1011300000A3E111E0835A00DF835A00311D400013
:1011400000140E40010040204B0A40000000000047
:101150002DE9F04F83B0B2F1000943DD0F1F061FE8
:101160000025DFF8A4A0019608E03320224B984721
:1011700021460020D0470135A94533D057F8043F18
:101180004FF47A7494FBF3F42146019B53F8040F57
:101190000193D0472046194B984715A3D3E9002364
:1011A000DFF86880C047164B984701460028DCD01E
:1011B000C3171448A1FB0001124E06FB031141F2B4
:1011C0002C72002341F22B7B4FF0000C1BEB000B29
:1011D0004CEB010C58466146DFF83480C047064BA3
:1011E0009847C5E703B0BDE8F08F00BFAFF30080BC
:1011F000CDCCCCCCCCCCF43F01004020F11740004A
:10120000E11C400000A3E11181104000BD18400026
:10121000311D40002DE9F04383B03F4B98474FF418
:1012200000423E4B5A600C203D4CA0470A20A0478C
:101230000C20A0470B20A0471020A0470A20A04761
:101240001020A0470C20A0470A20A047354D0024BD
:101250000094234622464FF480712846324FB84707
:10126000324E00942346224601213046B84700946E
:10127000234622464FF080412846B847DFF8BC801D
:1012800000942346224604214046B847DFF8B09038
:101290000094234622464FF080414846B8472246F4
:1012A0004FF400613046224FB84722464FF080513C
:1012B0004846B84722464FF000412846B8472246E4
:1012C0004FF400213046B84701224FF40061304608
:1012D000184CA04701224FF080514846A0470122F8
:1012E0004FF000412846A04701224FF4002130462C
:1012F000A0474FF4807128460F4CA047012130468B
:10130000A0474FF080412846A04704214046A0470F
:1013100003B0BDE8F08300BF9108400050180E40B4
:10132000C90D400000120E40350B4000000E0E406B
:10133000FF0A4000410A40004B0A400000100E40E6
:1013400000140E402DE9F047ADF53D6D694B98470F
:101350000A20694CA0470B20A0470C20A047102072
:10136000A0471520A047654B9847654B984701213A
:101370006448654B9847654B102232216448654CA0
:10138000A047654D4FF49C76324629460DF69820CD
:10139000624CA0473246A9190DF51660A0474FF4DC
:1013A0004B76324605F51C710DF23460A04732468B
:1013B00005F29C51C2A8A0474FF4C07205F6C801BF
:1013C00062A8A0474FF4C27205F6482101A8A047C1
:1013D0000026DFF870914FF02055514CDFF8248142
:1013E000DFF864A14F4F24E04E220DF516610DF693
:1013F00098204D4B98474FF0004229463846A04769
:1014000090B901214046494B98474FF080413846FA
:101410003D4B98473D4B1022322145483D4EB04749
:101420005046444B984701264FF400222946404637
:10143000A0474FF0805229464846A04700284BD18C
:10144000002ED1D0012E07D0022E25D04FF0004221
:1014500029463846A047E7E7642201A962A8324B33
:1014600098474FF0004229463846A0470028DBD174
:101470004FF0804138462D4B984704212E48224B8F
:101480009847224B102232212C48224EB04750461A
:10149000284B98470226C7E74C22C2A90DF23460B8
:1014A000214B98474FF0004229463846A047002874
:1014B000BAD1042120481D4B984701214046124BC8
:1014C0009847124B102232211D48124EB047504609
:1014D000184B98470026A7E74FF0004229463846A8
:1014E000A0470028A0D1002E8BD0012EC0D0022E04
:1014F0009AD1DEE701094000C90D400071054000A6
:1015000015124000000E0E404F0A40000C00402013
:10151000F8384000D90440002C2D400091204000B4
:10152000530A400000120E40511140004B0A400087
:10153000003940000100402000100E4008394000F2
:101540001039400000140E4092AC340181F000418B
:1015500002E000BF83F0004330B54FEA41044FEA98
:10156000430594EA050F08BF90EA020F1FBF54EA33
:10157000000C55EA020C7FEA645C7FEA655C00F0CF
:10158000E2804FEA5454D4EB5555B8BF6D420CDDA0
:101590002C4480EA020281EA030382EA000083EA23
:1015A000010180EA020281EA0303362D88BF30BDC3
:1015B00011F0004F4FEA01314FF4801C4CEA113119
:1015C00002D0404261EB410113F0004F4FEA033378
:1015D0004CEA133302D0524263EB430394EA050F03
:1015E00000F0A780A4F10104D5F1200E0DDB02FA72
:1015F0000EFC22FA05F2801841F1000103FA0EF206
:10160000801843FA05F359410EE0A5F120050EF1CB
:10161000200E012A03FA0EFC28BF4CF0020C43FAFC
:1016200005F3C01851EBE37101F0004507D54FF009
:10163000000EDCF1000C7EEB00006EEB0101B1F559
:10164000801F1BD3B1F5001F0CD349085FEA30009F
:101650004FEA3C0C04F101044FEA445212F5800FAA
:1016600080F09A80BCF1004F08BF5FEA500C50F147
:10167000000041EB045141EA050130BD5FEA4C0C2A
:10168000404141EB010111F4801FA4F10104E9D1B3
:1016900091F0000F04BF01460020B1FA81F308BFAA
:1016A0002033A3F10B03B3F120020CDA0C3208DD76
:1016B00002F1140CC2F10C0201FA0CF021FA02F151
:1016C0000CE002F11402D8BFC2F1200C01FA02F1C1
:1016D00020FA0CFCDCBF41EA0C019040E41AA2BFE6
:1016E00001EB0451294330BD6FEA04041F3C1CDAAE
:1016F0000C340EDC04F11404C4F1200220FA04F0CE
:1017000001FA02F340EA030021FA04F345EA030177
:1017100030BDC4F10C04C4F1200220FA02F001FA39
:1017200004F340EA0300294630BD21FA04F02946BB
:1017300030BD94F0000F83F4801306BF81F4801154
:101740000134013D4EE77FEA645C18BF7FEA655CC7
:1017500029D094EA050F08BF90EA020F05D054EA99
:10176000000C04BF1946104630BD91EA030F1EBF9E
:101770000021002030BD5FEA545C05D140004941A2
:1017800028BF41F0004130BD14F580043CBF01F595
:10179000801130BD01F0004545F0FE4141F470017B
:1017A0004FF0000030BD7FEA645C1ABF1946104656
:1017B0007FEA655C1CBF0B46024650EA013406BF57
:1017C00052EA033591EA030F41F4002130BD00BF16
:1017D00090F0000F04BF0021704730B54FF48064D3
:1017E00004F132044FF000054FF0000150E700BF54
:1017F00090F0000F04BF0021704730B54FF48064B3
:1018000004F1320410F0004548BF40424FF000019F
:101810003EE700BF42004FEAE2014FEA31014FEAE2
:1018200002701FBF12F07F4393F07F4F81F0605131
:10183000704792F0000F14BF93F07F4F704730B5A0
:101840004FF4607401F0004521F0004120E700BF33
:1018500050EA010208BF704730B54FF000050AE0BA
:1018600050EA010208BF704730B511F0004502D5BB
:10187000404261EB41014FF4806404F132045FEABD
:10188000915C3FF4DCAE4FF003025FEADC0C18BF62
:1018900003325FEADC0C18BF033202EBDC02C2F158
:1018A000200300FA03FC20FA02F001FA03FE40EAEA
:1018B0000E0021FA02F11444C1E600BF70B54FF0EA
:1018C000FF0C4CF4E06C1CEA11541DBF1CEA1355CC
:1018D00094EA0C0F95EA0C0F00F0DEF82C4481EA34
:1018E000030621EA4C5123EA4C5350EA013518BF54
:1018F00052EA033541F4801143F4801338D0A0FB41
:1019000002CE4FF00005E1FB02E506F00042E0FBED
:1019100003E54FF00006E1FB03569CF0000F18BFF3
:101920004EF0010EA4F1FF04B6F5007F64F540749B
:1019300004D25FEA4E0E6D4146EB060642EAC6212E
:1019400041EA55514FEAC52040EA5E504FEACE2E9B
:10195000B4F1FD0C88BFBCF5E06F1ED8BEF1004F9E
:1019600008BF5FEA500E50F1000041EB045170BD1A
:1019700006F0004646EA010140EA020081EA03015E
:10198000B4EB5C04C2BFD4EB0C0541EA045170BD5A
:1019900041F480114FF0000E013C00F3AB8014F1D4
:1019A000360FDEBF002001F0004170BDC4F100041D
:1019B000203C35DA0C341BDC04F11404C4F120059E
:1019C00000FA05F320FA04F001FA05F240EA0200F9
:1019D00001F0004221F0004110EBD37021FA04F62F
:1019E00042EB06015EEA430E08BF20EAD37070BDE9
:1019F000C4F10C04C4F1200500FA04F320FA05F048
:101A000001FA04F240EA020001F0004110EBD37049
:101A100041F100015EEA430E08BF20EAD37070BDB9
:101A2000C4F1200500FA05F24EEA020E20FA04F392
:101A300001FA05F243EA020321FA04F001F0004141
:101A400021FA04F220EA020000EBD3705EEA430EB2
:101A500008BF20EAD37070BD94F0000F0FD101F0E1
:101A60000046400041EB010111F4801F08BF013C1A
:101A7000F7D041EA060195F0000F18BF704703F058
:101A80000046520043EB030313F4801F08BF013DDF
:101A9000F7D043EA0603704794EA0C0F0CEA13559B
:101AA00018BF95EA0C0F0CD050EA410618BF52EA55
:101AB0004306D1D181EA030101F000414FF000005B
:101AC00070BD50EA410606BF1046194652EA430669
:101AD00019D094EA0C0F02D150EA013613D195EADD
:101AE0000C0F05D152EA03361CBF104619460AD125
:101AF00081EA030101F0004141F0FE4141F470012F
:101B00004FF0000070BD41F0FE4141F4780170BD1E
:101B100070B54FF0FF0C4CF4E06C1CEA11541DBF83
:101B20001CEA135594EA0C0F95EA0C0F00F0A7F885
:101B3000A4EB050481EA030E52EA03354FEA0131B2
:101B400000F088804FEA03334FF0805545EA1313C5
:101B500043EA12634FEA022245EA111545EA10658D
:101B60004FEA00260EF000419D4208BF964244F124
:101B7000FD0404F5407402D25B084FEA3202B61A43
:101B800065EB03055B084FEA32024FF480104FF417
:101B9000002CB6EB020E75EB030E22BFB61A75468B
:101BA00040EA0C005B084FEA3202B6EB020E75EB1E
:101BB000030E22BFB61A754640EA5C005B084FEA86
:101BC0003202B6EB020E75EB030E22BFB61A754653
:101BD00040EA9C005B084FEA3202B6EB020E75EB5E
:101BE000030E22BFB61A754640EADC0055EA060E1F
:101BF00018D04FEA051545EA16754FEA06164FEA62
:101C0000C30343EA52734FEAC2025FEA1C1CC0D10D
:101C100011F4801F0BD141EA00014FF000004FF09A
:101C2000004CB6E711F4801F04BF01430020B4F15B
:101C3000FD0C88BFBCF5E06F3FF6AFAEB5EB030C13
:101C400004BFB6EB020C5FEA500C50F1000041EB10
:101C5000045170BD0EF0004E4EEA113114EB5C04DD
:101C6000C2BFD4EB0C0541EA045170BD41F48011B0
:101C70004FF0000E013C90E645EA060E8DE60CEAB8
:101C8000135594EA0C0F08BF95EA0C0F3FF43BAFD5
:101C900094EA0C0F0AD150EA01347FF434AF95EA8C
:101CA0000C0F7FF425AF104619462CE795EA0C0F70
:101CB00006D152EA03353FF4FDAE1046194622E73D
:101CC00050EA410618BF52EA43067FF4C5AE50EA17
:101CD00041047FF40DAF52EA43057FF4EBAE12E707
:101CE0004FEA410212F5001215D211D56FF4787344
:101CF000B3EB625212D94FEAC12343F0004343EAE7
:101D0000505311F0004F23FA02F018BF40427047C1
:101D10004FF00000704750EA013005D111F000404B
:101D200008BF6FF0004070474FF00000704700BFE1
:101D300053B94AB9002908BF00281CBF4FF0FF3132
:101D40004FF0FF3000F07AB9ADF1080C6DE904CE28
:101D500000F006F8DDF804E0DDE9022304B0704786
:101D60002DE9F0478C460D460446089E002B51D1C4
:101D70008A4217466DD9B2FA82FEBEF1000F0BD02F
:101D8000CEF1200C01FA0EF520FA0CFC02FA0EF747
:101D90004CEA050C00FA0EF44FEA174A250CBCFB7E
:101DA000FAF81FFA87F90AFB18CC45EA0C4508FB3C
:101DB00009F3AB420AD9ED1908F1FF3280F0238113
:101DC000AB4240F22081A8F102083D44ED1AA4B2D2
:101DD000B5FBFAF00AFB105544EA054400FB09F98B
:101DE000A14509D9E41900F1FF3380F00A81A1452A
:101DF00040F2078102383C44A4EB090440EA084061
:101E00000021002E61D024FA0EF4002334607360A8
:101E1000BDE8F0878B4207D9002E54D0002186E818
:101E200021000846BDE8F087B3FA83F1002940F0AD
:101E30008E80AB4202D3824200F2FA80841A65EBB4
:101E400003050120AC46002E3FD086E81010BDE807
:101E5000F08712B90127B7FBF2F7B7FA87FEBEF198
:101E6000000F34D1EB1B3A0C1FFA87FC0121B3FBA6
:101E7000F2F8250C02FB183345EA03450CFB08F386
:101E8000AB4207D9ED1908F1FF3002D2AB4200F2A4
:101E9000D1808046ED1AA3B2B5FBF2F002FB1055DB
:101EA00043EA05440CFB00FCA44507D9E41900F102
:101EB000FF3302D2A44500F2B8801846A4EB0C040C
:101EC00040EA08409DE731463046BDE8F087CEF154
:101ED000200405FA0EF307FA0EF720FA04F83A0C7C
:101EE00025FA04F448EA0308B4FBF2F14FEA184576
:101EF00002FB11441FFA87FC45EA044501FB0CF381
:101F0000AB4200FA0EF409D9ED1901F1FF3080F06F
:101F10008A80AB4240F2878002393D44EB1A1FFAB7
:101F200088F5B3FBF2F002FB103345EA034500FBF2
:101F30000CF3AB4207D9ED1900F1FF386FD2AB4279
:101F40006DD902383D44EB1A40EA01418FE7C1F1F7
:101F5000200722FA07F88B4005FA01F448EA030348
:101F600020FA07FE4FEA134CFD404EEA040EB5FB83
:101F7000FCF94FEA1E440CFB19551FFA83F844EA9A
:101F8000054509FB08F4AC4202FA01F200FA01FA35
:101F900008D9ED1809F1FF3043D2AC4241D9A9F17B
:101FA00002091D442D1B1FFA8EFEB5FBFCF00CFB35
:101FB00010554EEA054400FB08F8A04507D9E4187F
:101FC00000F1FF3529D2A04527D902381C4440EA48
:101FD0000940A4EB0804A0FB02894C45C6464D46C7
:101FE00015D312D056B1BAEB0E0364EB050404FA14
:101FF00007F7CB401F43CC40376074600021BDE839
:10200000F0871846F8E69046E0E6C245EAD2B8EB1B
:10201000020E69EB03050138E4E72846D7E740469E
:1020200091E78146BEE7014678E702383C4445E740
:10203000084608E7A8F102083D442BE7704700BFB7
:1020400070B50F4E0F4D761BB61018BF002405D08B
:10205000013455F8043B9847A642F9D10A4E0B4D7E
:10206000761B01F05BFCB61018BF002406D00134CB
:1020700055F8043B9847A642F9D170BD70BD00BF2A
:1020800028394000283940003039400028394000C4
:10209000844641EA000313F003036DD1403A41D373
:1020A00051F8043B40F8043B51F8043B40F8043B32
:1020B00051F8043B40F8043B51F8043B40F8043B22
:1020C00051F8043B40F8043B51F8043B40F8043B12
:1020D00051F8043B40F8043B51F8043B40F8043B02
:1020E00051F8043B40F8043B51F8043B40F8043BF2
:1020F00051F8043B40F8043B51F8043B40F8043BE2
:1021000051F8043B40F8043B51F8043B40F8043BD1
:1021100051F8043B40F8043B51F8043B40F8043BC1
:10212000403ABDD2303211D351F8043B40F8043B61
:1021300051F8043B40F8043B51F8043B40F8043BA1
:1021400051F8043B40F8043B103AEDD20C3205D371
:1021500051F8043B40F8043B043AF9D2043208D069
:10216000D2071CBF11F8013B00F8013B01D30B88DB
:1021700003806046704700BF082A13D38B078DD0B9
:1021800010F003038AD0C3F10403D21ADB071CBF8B
:1021900011F8013B00F8013B80D331F8023B20F8F5
:1021A000023B7BE7043AD9D3013A11F8013B00F82E
:1021B000013BF9D20B7803704B7843708B788370B6
:1021C00060467047024B13B1024800F005B87047F3
:1021D00000000000E5214000002301461A46184691
:1021E00000F01EB838B50A4C0A4D641BA4100AD082
:1021F00004F18043013B05EB8305013C55F80439AC
:102200009847002CF9D1BDE8384001F091BB00BFE0
:10221000403940003C394000704700BF704700BF64
:102220002DE9F8432C4D0646286898460F469146FE
:10223000FFF7F2FF294B1C68D4F84831002B3ED041
:102240005A681F2A1CDC02F1010E76B103EB8201F1
:102250000124C1F88890D3F8880194402043022ECD
:10226000C3F88801C1F8088123D00232C3F804E022
:10227000286843F82270FFF7D1FF0020BDE8F883FB
:10228000174B0BB34FF4C870AFF300800346D8B1BF
:10229000D4F848210260002141600A46C4F8480190
:1022A0004FF0010EC0F88811C0F88C11002EDCD060
:1022B000CCE7D3F88C110C43C3F88C41D5E704F577
:1022C000A673C4F84831BBE72868FFF7A7FF4FF0B3
:1022D000FF30BDE8F88300BF4804402018394000B3
:1022E00000000000000000000000000000000000EE
:1022F00000000000000000000000000000000000DE
:1023000000000000300030003000300030003000AD
:10231000000030003000000000000000000000005D
:102320006C006C006C006C000000000000000000FD
:102330000000000000000000000000000000280075
:1023400028007C00280028007C00280028000000CD
:10235000000000000000000010003C0040002000D1
:1023600010000800040078001000000000000000C9
:102370000000000000007C00A400A800500028001D
:1023800054009400880000000000000000000000DD
:102390006000900090009000600094008800880029
:1023A000700000000000000000000000100010009D
:1023B000100000000000000000000000000000000D
:1023C00000000000000000000800100020002000B5
:1023D0002000200020002000100008000000000065
:1023E000000000002000100008000800080008009D
:1023F0000800080010002000000000000000280075
:1024000010007C0010002800000000000000000008
:1024100000000000000000000000000000000000BC
:10242000100010001000FE0010001000100000004E
:10243000000000000000000000000000000000009C
:10244000000000000000000010003000200000002C
:1024500000000000000000000000000000007C0000
:10246000000000000000000000000000000000006C
:10247000000000000000000000000000000030002C
:102480003000000000000000000000000000080014
:102490000800100010002000200040004000000054
:1024A00000000000000000000000780084008C00A4
:1024B0009400A400C4008400780000000000000024
:1024C000000000000000100030005000100010005C
:1024D000100010007C000000000000000000000060
:1024E00000007000880008001000200040008000FC
:1024F000F800000000000000000000000000700074
:102500008800080030000800080088007000000003
:102510000000000000000000000008001800280073
:1025200048008800FC0008000800000000000000CF
:10253000000000000000780080008000F00008002B
:1025400008000800F000000000000000000000008B
:102550000000300040008000F00088008800880003
:102560007000000000000000000000000000F80003
:102570000800100010002000200040004000000073
:1025800000000000000000000000700088008800CB
:1025900070008800880088007000000000000000C3
:1025A00000000000000070008800880088007800AB
:1025B00008001000600000000000000000000000A3
:1025C000000000000000300030000000000030007B
:1025D00030000000000000000000000000000000CB
:1025E00000003000300000000000300030006000CB
:1025F0004000000000000000000000000800100083
:102600002000400020001000080000000000000032
:102610000000000000000000000000007C0000003E
:102620007C0000000000000000000000000000002E
:1026300000000000400020001000080010002000F2
:10264000400000000000000000000000000030001A
:1026500048000800100020000000000020000000DA
:102660000000000000000000000000003C004200EC
:102670009A00AA00AA00BE008000780000000000B6
:1026800000000000000010002800280044007C002A
:10269000440044004400000000000000000000006E
:1026A0000000F80084008400F800840084008400A6
:1026B000F8000000000000000000000000003C00E6
:1026C0004000800080008000800040003C0000004E
:1026D00000000000000000000000F00088008400FE
:1026E0008400840084008800F000000000000000E6
:1026F000000000000000F80080008000F000800072
:1027000080008000F80000000000000000000000D1
:102710000000F80080008000F80080008000800049
:1027200080000000000000000000000000003C00ED
:102730004000800080009C008400440038000000BD
:1027400000000000000000000000880088008800F1
:10275000F800880088008800880000000000000061
:10276000000000000000F8002000200020002000F1
:1027700020002000F8000000000000000000000021
:102780000000F80008000800080008000800080021
:10279000F0000000000000000000000000008400C5
:1027A00088009000A000D000880084008400000011
:1027B0000000000000000000000080008000800099
:1027C0008000800080008000FC000000000000000D
:1027D0000000000000008400CC00CC00B400B40075
:1027E000840084008400000000000000000000005D
:1027F00000008400C400C400A400A400940094005D
:102800008C000000000000000000000000007800C4
:102810008400840084008400840084007800000028
:1028200000000000000000000000F80084008400A8
:102830008400F8008000800080000000000000009C
:102840000000000000007800840084008400840000
:1028500084008400780020001800000000000000C0
:102860000000F800840084008400F80088008400E0
:1028700084000000000000000000000000007C0058
:10288000800080006000180004000400F8000000D0
:1028900000000000000000000000F8002000200000
:1028A0002000200020002000200000000000000088
:1028B0000000000000008400840084008400840084
:1028C0008400840078000000000000000000000088
:1028D0000000840084008400480048004800300064
:1028E0003000000000000000000000000000880030
:1028F000A800A800A800A800A800500050000000F0
:102900000000000000000000000088008800500067
:102910002000200050008800880000000000000017
:10292000000000000000880088008800500050006F
:102930002000200020000000000000000000000037
:102940000000FC000400080010002000400080008F
:10295000FC000000000000000000000070004000CB
:102960004000400040004000400040004000400067
:102970007000000000000000400040002000200027
:1029800020001000100010000800080000000000E7
:1029900000000000380008000800080008000800D7
:1029A00008000800080008003800000000000000CF
:1029B000100028004400000000000000000000009B
:1029C0000000000000000000000000000000000007
:1029D00000000000000000000000000038000000BF
:1029E00000000000000000000000200010000000B7
:1029F00000000000000000000000000000000000D7
:102A00000000000000000000000070000800080046
:102A1000780088007C00000000000000000000003A
:102A2000800080008000F80084008400840084001E
:102A3000F80000000000000000000000000000009E
:102A40000000780080008000800080007800000096
:102A500000000000000000000400040004007C00EE
:102A60008400840084008C007400000000000000DA
:102A70000000000000000000000078008400FC005E
:102A8000800080007C0000000000000000000000CA
:102A90001C0020002000FC0020002000200020005E
:102AA000FC0000000000000000000000000000002A
:102AB00000007C0084008400840084007C0004000A
:102AC0007800000000000000800080008000B80056
:102AD000C400840084008400840000000000000022
:102AE0000000000000001000000070001000100046
:102AF000100010007C00000000000000000000003A
:102B00000000080000007800080008000800080025
:102B1000080008000800700000000000800080002D
:102B2000800088009000A000D0008800880000008D
:102B30000000000000000000E00020002000200055
:102B40002000200020002000F8000000000000000D
:102B500000000000000000000000A400FC00A40031
:102B6000A400A400A4000000000000000000000079
:102B7000000000000000B800C4008400840084004D
:102B800084000000000000000000000000000000C1
:102B90000000780084008400840084007800000035
:102BA0000000000000000000000000000000B8006D
:102BB000C400840084008400F800800080000000CD
:102BC000000000000000000000007C008400840081
:102BD000840084007C000400040000000000000069
:102BE000000000000000D8006000400040004000ED
:102BF000F0000000000000000000000000000000E5
:102C0000000078008000400030000800F000000064
:102C10000000000000000000000000002000FC0098
:102C200020002000200020001C0000000000000008
:102C300000000000000000000000880088008800FC
:102C4000880088007C0000000000000000000000F8
:102C50000000000000008400840084004800480058
:102C60003000000000000000000000000000000034
:102C700000008800A800A800A800A80050000000DC
:102C800000000000000000000000000000008800BC
:102C900050002000200050008800000000000000CC
:102CA00000000000000000000000840084004800D4
:102CB000480030001000200040000000000000002C
:102CC000000000000000F800080010002000400094
:102CD000F8000000000000000000000010002000CC
:102CE0002000100020002000100020002000100014
:102CF0000000000000000000100010001000100094
:102D00000000000010001000100010000000000083
:102D10000000000020001000100020001000100033
:102D20002000100010002000000000004D0A0000EC
:102D30004D0A0000000000004D0A000000000000E5
:102D40002D0800004D0A000000000000400C0000AB
:102D5000000000000000000000000000200600004D
:102D60000000000000000000000000002D0800002E
:102D7000000000000000000020060000000000002D
:102D80000000000027050000000000000000000017
:102D9000E006000000000000B8070000000000008E
:102DA00049070000E00600000000000020060000C7
:102DB0004D0A0000400C0000C00D000000000000A3
:102DC000EA0A0000400C0000000000004D0A00006C
:102DD000000000002D0800002D090000B8070000C9
:102DE00000000000000000002D08000000000000AE
:102DF00000000000200600000000000000000000AD
:102E0000270500000000000000000000E0060000B0
:102E100000000000B80700000000000049070000A3
:102E2000E006000000000000200600004D0A00003F
:102E3000400C0000C00D000000000000EA0A000085
:102E4000400C0000000000004D0A000000000000DF
:102E50002D0800002D090000B80700000000000048
:102E6000000000000C0000000C0000000C0000003E
:102E70000C0000000C0000000C0000000C00000022
:102E80000C0000000C0000000C0000000C00000012
:102E90000C0000000C0000000C0000000C00000002
:102EA0000C0000000C0000000C0000000C000000F2
:102EB0000C0000000C0000000C0000000C000000E2
:102EC0000C0000000C0000000C0000000C000000D2
:102ED0000C0000000C0000000C0000000C000000C2
:102EE0000C000000090000000900000009000000BB
:102EF0000C0000000C0000000C0000000C000000A2
:102F00000C0000000C0000000C0000000C00000091
:102F10000C0000000C0000000C0000000C00000081
:102F20000C0000000C0000000C0000000C00000071
:102F30000C0000000C0000000C0000000C00000061
:102F40000C0000000C0000000C0000000C00000051
:102F50000C0000000C0000000C0000000C00000041
:102F60000900000009000000090000000C0000003A
:102F70000C0000000C0000000C0000000C00000021
:102F80000C0000000C0000000C0000000C00000011
:102F90000C0000000C0000000C00000027050000E1
:102FA00020060000E0060000E0060000000000002F
:102FB000E0060000B80700002D0800002D08000002
:102FC000000000002D0800002D090000B8070000D7
:102FD000B807000000000000E00600002006000026
:102FE000E0060000000000002705000020060000A9
:102FF000E0060000E006000000000000E00600001F
:10300000B80700002D0800002D0800000000000097
:103010002D0800002D090000B8070000B8070000C7
:1030200000000000E006000020060000E0060000AE
:10303000000000002705000020060000E006000058
:10304000E006000000000000E00600002D0800007F
:103050002D0900002D090000000000002D090000CE
:103060004D0A0000EA0A0000EA0A00000000000021
:103070004D0A00002D0900004D0A0000E006000086
:1030800000000000E0060000B80700002D08000066
:103090002D080000000000002D0900004D0A00006E
:1030A000E006000000000000E00600002D0800001F
:1030B000B8070000B8070000000000002D0800005D
:1030C000E0060000B807000000000000E006000075
:1030D000E0060000E0060000B80700002D08000030
:1030E0002D080000000000002D0800002D09000040
:1030F000B8070000B807000000000000E00600006C
:1031000020060000E0060000000000002705000087
:1031100020060000E0060000E006000000000000BD
:10312000E0060000B80700002D0800002D08000090
:10313000000000002D0800002D090000B807000065
:10314000B807000000000000E006000020060000B4
:10315000E006000000000000270500002006000037
:10316000E0060000E006000000000000E0060000AD
:103170002D0800002D0900002D09000000000000AE
:103180002D0900004D0A0000EA0A0000EA0A0000CA
:10319000000000004D0A00002D0900004D0A00004B
:1031A000E006000000000000E0060000B807000094
:1031B0002D0800002D080000000000002D0900006F
:1031C0004D0A0000E006000000000000E0060000DC
:1031D0002D080000B8070000B8070000000000003C
:1031E0002D080000E0060000B80700000000000005
:1031F0004D0A00000000000000000000EA0A000084
:1032000000000000000000004D0A00004D0A000010
:1032100000000000400C0000000000004D0A00000B
:103220002D09000000000000000000002D09000032
:1032300000000000000000002D0800000000000059
:1032400000000000B80700002D080000000000008A
:10325000B807000000000000E00600004D0A000072
:103260000000000000000000EA0A0000000000006A
:10327000000000004D0A00004D0A000000000000A0
:10328000400C0000000000004D0A00002D09000065
:1032900000000000000000002D09000000000000F8
:1032A000000000002D0800000000000000000000E9
:1032B000B80700002D08000000000000B80700005B
:1032C00000000000E0060000080000000800000008
:1032D00004000000080000000800000008000000D2
:1032E00008000000040000000800000008000000C2
:1032F00008000000080000000400000008000000B2
:1033000008000000080000000800000002000000A3
:103310000800000008000000080000000400000091
:10332000080000000800000008000000080000007D
:103330000400000008000000080000000800000071
:103340000800000004000000080000000800000061
:103350000800000008000000020000000800000053
:103360000800000008000000040000000800000041
:103370000800000008000000080000000400000031
:10338000080000000800000008000000080000001D
:103390000400000008000000080000000800000011
:1033A0000800000008000000040000000800000001
:1033B00008000000080000000400000008000000F1
:1033C00008000000040000000800000004000000E5
:1033D00008000000080000000800000004000000D1
:1033E00008000000080000000800000008000000BD
:1033F00002000000020000000400000008000000BD
:1034000008000000080000000400000008000000A0
:103410000800000008000000080000000400000090
:10342000080000000800000008000000080000007C
:103430000200000008000000080000000800000072
:103440000400000008000000080000000800000060
:103450000800000004000000080000000800000050
:103460000800000008000000040000000800000040
:103470000800000008000000080000000200000032
:103480000800000008000000080000000400000020
:10349000080000000800000008000000080000000C
:1034A0000400000008000000080000000800000000
:1034B00008000000040000000800000008000000F0
:1034C00008000000080000000800000004000000E0
:1034D00008000000080000000800000004000000D0
:1034E00008000000080000000400000008000000C0
:1034F00004000000080000000800000008000000B0
:10350000040000000800000008000000080000009F
:10351000080000000200000002000000040000009B
:103520000800000002000000040000000800000085
:103530000200000008000000080000000800000071
:10354000080000000800000008000000080000005B
:103550000800000002000000040000000800000055
:10356000020000000400000008000000020000004B
:10357000080000000800000008000000080000002B
:103580000800000002000000040000000800000025
:10359000020000000400000008000000020000001B
:1035A00008000000080000000800000008000000FB
:1035B00008000000080000000800000008000000EB
:1035C00002000000040000000800000002000000EB
:1035D00004000000080000000200000008000000D5
:1035E00008000000080000000800000008000000BB
:1035F0000200000025010000250100004B02000030
:10360000B80100009F010000870100005D0100007B
:10361000250100005D010000870100000501000098
:10362000050100004B020000B80100009F010000EE
:10363000870100005D010000250100005D01000020
:1036400087010000F6000000F60000004B020000B9
:10365000B80100009F010000870100005D0100002B
:10366000250100005D01000087010000E900000065
:10367000E90000004B020000B80100009F010000BB
:10368000870100005D010000250100005D010000D0
:103690008701000025010000250100004B02000009
:1036A000B80100009F010000870100005D010000DB
:1036B000250100005D0100008701000005010000F8
:1036C000050100004B020000B80100009F0100004E
:1036D000870100005D010000250100005D01000080
:1036E00087010000F6000000F60000004B02000019
:1036F000B80100009F010000870100005D0100008B
:10370000250100005D01000087010000E9000000C4
:10371000E90000004B020000B80100009F0100001A
:10372000870100005D010000250100005D0100002F
:103730008701000025010000250100004B02000068
:10374000B80100009F010000870100005D0100003A
:10375000250100005D010000870100000501000057
:10376000050100004B020000B80100009F010000AD
:1037700087010000080000000800000004000000AD
:10378000020000000400000004000000040000002B
:103790000800000008000000080000001000000001
:1037A00010000000100000001000000004000000E5
:1037B00002000000040000000400000004000000FB
:1037C00008000000080000000800000008000000D9
:1037D00008000000040000000200000004000000D7
:1037E00004000000040000000800000008000000C1
:1037F0000800000010000000100000001000000091
:10380000100000000400000002000000040000009E
:103810000400000004000000080000000800000090
:10382000080000000800000008000000040000007C
:10383000020000000400000004000000040000007A
:103840000800000008000000080000001000000050
:103850001000000010000000100000000400000034
:10386000020000000400000004000000040000004A
:103870000800000008000000080000000800000028
:103880000800000004000000020000000400000026
:103890000400000004000000080000000800000010
:1038A00008000000100000001000000010000000E0
:1038B00010000000040000000200000004000000EE
:1038C00004000000040000000800000008000000E0
:1038D00008000000080000000800000004000000CC
:1038E00003000000040000000400000004000000C9
:1038F00008000000080000004D6172696F000000C0
:103900004D6567616C6F200050697261746173006E
:103910004D6172696F20200020004020F8B500BF83
:10392000F8BC08BC9E467047C521400065014000B8
:10393000F8B500BFF8BC08BC9E4670474101400086
:0839400020E4FF7F01000000FC
:10394800BFF35F8F0138FBD1704700000000000013
:10395800E42240000A0E207D0100000000093D001D
:10396800000000000C03402074034020DC034020CA
:10397800000000000000000000000000000000003F
:10398800000000000000000000000000000000002F
:10399800000000000000000000000000000000001F
:1039A800000000000000000000000000000000000F
:1039B80000000000000000000000000000000000FF
:1039C80000000000000000000000000000000000EF
:1039D80000000000000000000000000000000000DF
:1039E80000000000000000000000000000000000CF
:1039F80000000000000000000000000000000000BF
:103A080000000000000000000100000000000000AD
:103A18000E33CDAB34126DE6ECDE05000B00000072
:103A2800000000000000000000000000000000008E
:103A3800000000000000000000000000000000007E
:103A4800000000000000000000000000000000006E
:103A5800000000000000000000000000000000005E
:0C3D88000000000000000000DC064020ED
:0400000500400E2188
:00000001FF
